:100BCD00433A5C4849445F524543562E45584500CB
:100BDD0005010906A101050719E029E71500250101
:100BED0095087501810295087501810105081901A6
:100BFD00290395037501910295017505910105076D
:100C0D0019002AFF00150026FF00950675088100C2
:100C1D00C005010902A1010901A100050919012958
:100C2D000315002501950375018102950175058157
:100C3D0003050109381581257F7508950181060980
:100C4D003009311500268007350047FFFF0000757C
:100C5D001095028102C0C009024900020100A032B4
:100C6D0009040100010302020009211001210122E2
:100C7D004600070582030600010705020340000137
:100C8D0009040000010301010009211101000122E5
:100C9D00410007058103080001070501034000011C
:100F0100430127FF0BCD41011300460139000000C9
:100F110000000048010A000000000000000042013A
:100F21002D000042012F0000520115120110010095
:0D0F310000000831510720001100000001F0
:1012B100C2EAE4F5E275EF0075EE0A75ED0075EC32
:1012C1000075E50075E45043EA4075D21275DC0201
:1012D10043EB0C75D412F5E375D18075E22943D146
:0A12E1000175D8FF75E107D2EA227B
:10114100E4900107F0A3F0780A7C007D017B017A2D
:1011510001790AFE7F081209E875D30853D2FCE52C
:10116100D254037028900108E004F0700690010742
:10117100E004F0D3900108E09496900107E06480C8
:0D118100948050097F647E001213D980D243
:01118E00223E
:10118F00E4900108F0A3F078907C007D017B017A58
:10119F00017939FE7F061209E875D50653D4FCE5AF
:1011AF00D454037028900109E004F07006900108F0
:1011BF00E004F0D3900109E09496900108E0648078
:0D11CF00948050097F647E001213D980D2F5
:0111DC0022F0
:030043000204B8FC
:0D04B800C0E0C0F0C083C082C0D075D00885
:1004C50020D9030208CBE5D9543F70030208AE24B6
:1004D500FE602324E2700302082F14602424F160D7
:1004E50034240E60030208CB75D500E5D454FC44D2
:1004F50002F5D40208CBE5D454F34402F5D402083E
:10050500CB75D300E5D254FC4402F5D290011474A6
:1005150001F00208CB9000D0E5DBF0E06408600351
:10052500020801900006E090012BF0900007E070B2
:100535000990012BE0D3947F400690012B747FF046
:100545009000D0E4F0900000E0FF54606026EFB426
:10055500210BA3E0B4090690012A7401F090000074
:10056500E0B42108A3E0B40A0375DD009000D0E4EF
:10057500F0020807900001E090012CF0E0B40B00B8
:1005850040030207F7900591F82828730207D50262
:1005950006EE0207F70207370207F70206BB020558
:1005A500B20207F70206C60206E302080790000337
:1005B500E024FE603D24E0604F2421600302064CE8
:1005C50090013F7401F0A37401F0A37415F090013C
:1005D5002DE0FEA3E090011DF0EEA3F090012FE0C9
:1005E500FEA3E090011FF0EEA3F09000D07412F08E
:1005F500805B90013F74FFF0A3740CF0A37464F06A
:100605009000D07449F08045900004E0FF7016908A
:10061500013F74FFF0A3740BF0A374DDF09000D0DC
:100625007441F08028EFB4011690013F74FFF0A3E8
:10063500740CF0A3741EF09000D07446F0800E90F8
:1006450000D074FFF080069000D074FFF09000D0C9
:10065500E0FFF4700302080790012BE0D39F4008E8
:100665009000D0E090012BF090012BE0C39408405E
:10067500047F08800590012BE0FF9000D0EFF0E0AB
:10068500FF7E0078007C007D0190013FE0FBA3E048
:10069500FAA3E0F91209E890012BE0FF9000D0E001
:1006A500FEC3EF9E90012BF0EEFF900140E48FF02A
:1006B500120ACB020807900002E090012BF0020815
:1006C50007900112E0900000F090012BE0C3940127
:1006D50050030208079000D07401F002080790004B
:1006E50002E0900112F0020807900000E0541F6438
:1006F500027036900004E014601D2480600E1470B2
:100705001CE5D454BC4402F5D4020807E5D254BC18
:100715004402F5D202080753D2730208079000D0AD
:1007250074FFF00208070208079000D074FFF0027A
:100735000807900000E0541FFD702D900003E0FEB7
:10074500900002E0FBEEEB64014E7013900C6B938E
:1007550030E5030208079000D074FFF00208079007
:1007650000D074FFF0020807ED6402705B9000038F
:10077500E0FE900002E0FDEEED4E7044900005E0D5
:10078500FE900004E0FDEEEDFFEE702AEF24FE6022
:10079500112481601714701EE5D454BF4403F5D4A9
:1007A5008060E5D4547F440CF5D48056E5D254BF1F
:1007B5004403F5D2804C9000D074FFF08044804211
:1007C5009000D074FFF0803A9000D074FFF0803232
:1007D500900000E4F0A3F090012BE0C394024008E0
:1007E5009000D07402F0801A90012BE09000D0F0B8
:1007F50080109000D074FFF0800880069000D074BF
:10080500FFF09000D0E0FFB4FF0990012C74FFF0D9
:100815000208CBEFD3940850088FDD75DCC00208C1
:10082500CB75DD0075DCC00208CB90012CE024FB04
:10083500605914706590012BE0C3940840047F084B
:10084500800590012BE0FF9000D0EFF0E0FF7E00E7
:1008550078007C007D0190013FE0FBA3E0FAA3E076
:10086500F91209E890012BE0FF9000D0E0FEC3EFFC
:100875009E90012BF0EEFF900140E48FF0120ACB21
:100885009000D0E0F5DD63DC40800FE5E35480FFA8
:1008950090012BE04FF5E375DC029000D0E0B4FF4A
:1008A5002575DD0075DC02801D9000D0E5DBF0903C
:1008B500012CE0B4060AB291900000E0900113F01B
:1008C50075DD0075DC0030D81275DC0275D2107547
:1008D500D41275E300C2DAC2D9C2D830DA27C2DA37
:1008E500E5DA30E223E5A220E7FB90012AE4F07582
:1008F500A15575A1AA75A98143870275A15575A151
:08090500AAF5A9800375D8FFD3
:0B090D00D0D0D082D083D0F0D0E032F8
:0B10F000900102EBF0A3EAF0A3E9F08E
:1010FB00120A0E900105F0E4A3F0F0900102E0FB60
:10110B00A3E0FAA3E0F9900106E0FFFD3395E08D33
:10111B0082F583120A27FEEF3395E0FC740A2DF556
:10112B008274013CF583EEF0900106E004F0E0B42C
:05113B0008C91211417A
:01114000228C
:0F13B900E4FF7F0890010AE4F0A3DFFC1211416A
:0113C8002202
:10000E00900102EEF0A3EFF0900107E0900139F0BD
:10001E00A3EBF0900102E0FAA3E090013BF0EAA31B
:0B002E00F0EDA3F0ECA3F012118F2204
:1012EB009000087401F01211DD900008E02439F52C
:1012FB0082E43401F583E02FF0900008E004F0E085
:05130B00C3944040E125
:0113100022BA
:100F3E000218000042014A000042014C0000C18527
:100F4E0042014800004301450038004301420000C1
:010F5E000092
:10104200EF14601B14602B14603B2403704874017E
:10105200A805088002C333D8FCF45292529322743A
:1010620001A805088002C333D8FCFFF45292EF4274
:1010720093227401A805088002C333D8FCFF429270
:10108200EFF45293227401A805088002C333D8FCFE
:07109200FF4292EF4293229E
:10109900EF14601B14602B14603B24037048740127
:1010A900A805088002C333D8FCF4529652972274DB
:1010B90001A805088002C333D8FCFFF45296EF4219
:1010C90097227401A805088002C333D8FCFF429611
:1010D900EFF45297227401A805088002C333D8FCA3
:0710E900FF4296EF4297223F
:10138100C2AFE4F5E2900145E0A3E0FAA3E0F9126F
:031391000BBB2271
:10139400C2AFE4F5E2900142E0A3E0FAA3E0F9125F
:0313A4000BBB225E
:03000B00021311CC
:10131100C0E0C083C082758CEC758A78900149E089
:1013210004F07006900148E004F0D082D083D0E050
:011331003289
:1013C900758901758C3C758AB0D2AFD2A9D28C22AD
:10004600E49000D3F0A3F0A3F0A3F0A37403F0A30D
:1000560074C0F0A37403F0A374C0F0C200C201C25E
:1000660002E4A3F09000E8F0A3F0A3F0A3F0A3F05D
:10007600A3F0A3F0A3F0A3F0A3F0A3F0A3F0A3F0E2
:10008600A3F0C203C2041213A71213C97F057E0090
:100096001213537F807E25120CAD7D017F03121053
:1000A600997D047F03121042E4FB7D017F02120E4C
:1000B60016E4FF121332903FFCE493FEA3E493FD93
:1000C600EEEDFF90012FEEF0A3EFF0903FFFE493EB
:1000D600FE903FFEE493FDEEEDFF90012DEEF0A3C2
:1000E600EFF07F7D7E0012135390012DE0FEA3E01A
:1000F600FFEE540FAD078D82F583E493FD75830003
:10010600E4938DF0A425C4FEE5C535F090012DF0ED
:10011600A3CEF07F7D7E001213537F7D7E001213E7
:100126005390012DE0FEA3E0FFEE540EAD078D8245
:10013600F583E493FDEE5407F583E4938DF0A4254F
:10014600C4FFE5C535F0FE90012EE02FFF90012D8E
:10015600E03E90012FF0A3EFF0E4F5C39000E9F044
:100166009000E9E0FFC3940C501474DC2FF582E490
:100176003400F583E4F09000E9E004F080E2121226
:10018600B1D2AFE4F5D3F5D5900114F090012AF081
:100196007F64FE1213539000D4E004F070069000C2
:1001A600D3E004F09000D6E004F070069000D5E0AD
:1001B60004F0B29430982EE49000D5F0A3F09000AD
:1001C600DBE599F0E0FF9000E8E024DCF582E4341A
:1001D60000F583EFF09000E8E004F0E0C3940C40F3
:1001E60002E4F0C29830031C9000F2E05407FEA32C
:1001F600E04E700C7B017A0079F71210F01213B9F9
:10020600A20092B1D39000D6E094969000D5E06417
:1002160080948050030204309000E8E0D3940050AC
:1002260003020430D202E49000F0F0A3F09000DC68
:10023600E0FF64FD6008EF64FE600302035F3005C3
:10024600097B017A0079DD1210F09000DFE0B4FF3F
:10025600031213819000DFE064FE705F900148E0B6
:10026600FEA3E09000F6F07802CEA2E713CE13D8F4
:10027600F89000F7F07B017A0079F6900106740297
:10028600F0E4FF120F6D900148E0FCA3E0FDAE0420
:100296007802CEA2E713CE13D8F89000F6F0A3EDBD
:1002A600F07B017A0079F69001067402F0FF120FD6
:1002B6006D7F647E001213531213949000DFE0B436
:1002C600FD031213949000DCE0B4FE04C2038033F5
:1002D600D203E49000E9F09000E8E0FFA3E0FEC35B
:1002E6009F502074DC2EF582E43400F583E0FF7421
:1002F600F62EF582E43400F583EFF09000E9E00491
:10030600F080D4C204E49000E9F09000E9E0FFC375
:10031600940C502F74DC2FF582E43400F583E060F2
:100326000B9000E9E0D394004002D2049000E9E08B
:1003360024DCF582E43400F583E4F09000E9E0047F
:10034600F080C7200402C20390014BE004F070065F
:1003560090014AE004F00204039000DCE0F47039F6
:10036600A3E0247F600F14601124026003020403DB
:10037600C205020403D2050204037FC07E12120CDA
:10038600AD9000EBE0F5997FB87E0B1213D97F8014
:100396007E25120CAD806680649000DCE0D3940765
:1003A600505BA3E0FD540FFEA3E0FBEEEBFF9000D5
:1003B600D7EEF0A3EFF0ED54F0FFC4540FFE90001B
:1003C600DFE0FDEEEDFF9000D9EEF0A3EFF0300593
:1003D6001E9000D7E0FEA3E0FFA3E0FCA3E0FD90A3
:1003E60000E0E0FB9000DCE0900107F012000E90C8
:1003F600014DE004F0700690014CE004F0E490003A
:10040600E8F09000D5F0A3F09000E9F09000E9E064
:10041600FFC3940C501474DC2FF582E43400F5838A
:10042600E4F09000E9E004F080E29000F2E0540786
:10043600FEA3E04E7002B20090012AE0FF64017054
:100446002A300523C39000F0E094085012A20092CF
:10045600B1A3E004F070069000F0E004F0801CA266
:100466000192B1C2028014C2B18010D2B19000F5DF
:10047600E004F070069000F4E004F09000F3E0046D
:10048600F070069000F2E004F0D39000F3E09400E0
:100496009000F2E094804003D38001C39201EF33D1
:1004A600333354F8FF900113E04F9000EBF0020154
:0104B6009CA9
:0104B7002222
:1013A70075A15575A1AAE5B954F84404F5B9E4F552
:0213B700A12271
:0E13D900EF4E600905A1EF1F70011E80F32288
:10135300AD07AC06ED4C600E7FE87E031213D9EDAA
:071363001D70011C80EE2249
:04003E0043C6102283
:080CAD00900102EEF0A3EFF04C
:100CB500C29FD29EC29DC2CDC2CC43878090010205
:100CC500E0FEA3E0FFFBAA06E4F9F8FF7E0E7D2710
:100CD5007C0712122AE47B10FAF9F812122A900105
:100CE50004120BAFE47B0AFAF9F8900104E0FCA3C7
:100CF500E0FDA3E0FEA3E0FF120B1D900108EBF061
:100D0500900104E0FCA3E0FDA3E0FEA3E0FFE47B8B
:100D15000AFAF9F8120B1D900104120BAF900108A5
:100D2500E0C394054025900104E0FCA3E0FDA3E0A9
:100D3500FEA3E0FFE4FAF9F8EF2401FFEA3EFEE93D
:100D45003DFDE83CFC900104120BAFE589540F44CE
:100D550020F58943C9A0900104E0A3E0A3E0A3E046
:100D6500F404FFF58D900102E0FCA3E0FDBC250530
:100D7500BD80028F8DBC1206BDC003758D64D28EF9
:040D8500D299D29C91
:010D89002247
:080003003098FDC298AF99226C
:0813F1008F993099FDC2992289
:0A13E700C2C7D2C5D2C475C2F322FA
:0813F90030C0FDC2C0AFC122EB
:081401008FC130C1FDD2C122F0
:10136A0075A15575A1AAEF600543B101800353B178
:07137A00FEE4F5A1F5FF22DE
:031409008FFF2230
:0B0F6D00900103EBF0A3EAF0A3E9F011
:100F780075A15575A1AA43B104E4F5A17585C0EF23
:100F880025E0FFE4FE900106E0FDEEC39D5032EE41
:100F980025E02FF584900103E0FBA3E0FAA3E0F934
:100FA8008E82758300120A27F58EE58630E6037572
:100FB800869AE5866440D394004003AF06220E80EB
:0F0FC800C475A15575A1AA53B1FBE4F5A1AF06FD
:010FD70022F7
:0E126E0090014EEDF0A3EBF0A3EAF0A3E9F03F
:10127C007585C0EF25E0FFE4FE90014EE0FDEEC366
:10128C009D501FEE25E02FF58475868EA3E0FBA301
:10129C00E0FAA3E0F98E82758300E58E120A540EF3
:0412AC0080D7AF0632
:0112B000221B
:0D0F5F0042004D020241004F0041004A00D7
:10133200EFD394015018744D2FF582E43400F583F5
:10134200E0FFE5C354F8FEEF4EF5C37F00227FFFB6
:011352002278
:050E1600900102EBF069
:100E1B00EF540C60037FFF22EFF452935292ED607C
:100E2B000343C310E4FBE4900103F0A3F07A05AF96
:100E3B0003121332AF021AEF6023E4FDFCE5C3206B
:100E4B00E70B0DED70010C4C70F37FFF229001044A
:100E5B00E025C4F0900103E035C5F080D790010385
:100E6B00E0FEA3E0FF7C007D05120A76EB25E02473
:100E7B004BF582E43400F583EEF0A3EFF00BEBB40B
:040E8B0001A47F003F
:010E8F002240
:100FD800E490004FF0FDE4FBFAAF05121332E5C3CD
:100FE80020E70B0BEB70010A4A70F37FFF22AFC4B6
:100FF800AEC5ED25E0244BF582E43400F583E0FA34
:10100800A3E02406FBEA34FFFAC3EF9BEE9A5022D2
:1010180090004FE0FF744D2DF582E43400F583E035
:1010280014FE7401A806088002C333D8FC4F900050
:091038004FF00DEDB4019F7F00A3
:01104100228C
:03003B00020E9022
:0B0E9000C0E0C083C082C0D075D0104D
:100E9B00AFC4AEC590004AE0FD25E0244BF582E4DB
:100EAB003400F583E0FAA3E02406FBEA34FFFAC32F
:100EBB00EF9BEE9A502290004FE0FF744D2DF58280
:100ECB00E43400F583E014FE7401A816088002C315
:100EDB0033D8FC4F90004FF090004AE004F0C394DD
:0D0EEB00014002E4F090004AE0FF121332D3
:090EF800D0D0D082D083D0E032CA
:03000000020D8A64
:0C0D8A00787FE4F6D8FD758120020DD1C1
:10091800E709F608DFFA8046E709F208DFFA803EC1
:1009280088828C83E709F0A3DFFA8032E309F608AE
:10093800DFFA8078E309F208DFFA807088828C8316
:10094800E309F0A3DFFA806489828A83E0A3F608CA
:10095800DFFA805889828A83E0A3F208DFFA804CA4
:1009680080D280FA80C680D4806980F2803380107B
:1009780080A680EA809A80A880DA80E280CA8033E4
:1009880089828A83ECFAE493A3C8C582C8CCC5835C
:10099800CCF0A3C8C582C8CCC583CCDFE9DEE7802C
:1009A8000D89828A83E493A3F608DFF9ECFAA9F0AB
:1009B800EDFB2289828A83ECFAE0A3C8C582C8CC01
:1009C800C583CCF0A3C8C582C8CCC583CCDFEADE1A
:1009D800E880DB89828A83E493A3F208DFF980CC7C
:1009E80088F0EF60010E4E60C388F0ED2402B40475
:1009F8000050B9F582EB2402B4040050AF2323451C
:060A0800822390096873CF
:100A0E00BB010689828A83E0225002E722BBFE02E6
:090A1E00E32289828A83E4932219
:100A2700BB010CE58229F582E5833AF583E0225084
:100A370006E92582F8E622BBFE06E92582F8E222CE
:0D0A4700E58229F582E5833AF583E49322E8
:100A5400F8BB010DE58229F582E5833AF583E8F0D8
:100A6400225006E92582C8F622BBFE05E92582C884
:020A7400F2226C
:100A7600BC000BBE0029EF8DF084FFADF022E4CC64
:100A8600F875F008EF2FFFEE33FEEC33FCEE9DEC2D
:100A9600984005FCEE9DFE0FD5F0E9E4CEFD22ED73
:100AA600F8F5F0EE8420D21CFEADF075F008EF2FBD
:100AB600FFED33FD4007985006D5F0F222C398FDAE
:050AC6000FD5F0EA224B
:100ACB00C5F0F8A3E028F0C5F0F8E58215827002B6
:060ADB001583E038F02253
:100AE10075F008758200EF2FFFEE33FECD33CDCCCC
:100AF10033CCC58233C5829BED9AEC99E58298404F
:100B01000CF582EE9BFEED9AFDEC99FC0FD5F0D62B
:100B1100E4CEFBE4CDFAE4CCF9A88222B800C1B955
:100B21000059BA002DEC8BF084CFCECDFCE5F0CB93
:100B3100F97818EF2FFFEE33FEED33FDEC33FCEBCC
:100B410033FB10D703994004EB99FB0FD8E5E4F987
:100B5100FA227818EF2FFFEE33FEED33FDEC33FC74
:100B6100C933C910D7059BE99A4007EC9BFCE99A68
:100B7100F90FD8E0E4C9FAE4CCFB2275F010EF2FAD
:100B8100FFEE33FEED33FDCC33CCC833C810D707AD
:100B91009BEC9AE899400AED9BFDEC9AFCE899F8E8
:0E0BA1000FD5F0DAE4CDFBE4CCFAE4C8F9227B
:10122A00C2D5E830E70FB2D5E4C39BFBE49AFAE4EF
:10123A0099F9E498F8EC30E717B2D5121260120B5C
:10124A001DE4C39BFBE49AFAE499F9E498F8800355
:10125A00120B1D30D50DE4C39FFFE49EFEE49DFDF5
:04126A00E49CFC22E2
:0C0BAF00ECF0A3EDF0A3EEF0A3EFF022B9
:060BBB008A838982E473C5
:1011DD00900152120BC17810EC4D4E4F70047CA54E
:1011ED007DA5C3EC13FCED13FDEE13FEEF13FF50C5
:1011FD0010EC64CCFCED644CFDEE644EFEEF64CE61
:10120D00FFD8DF900152120BAFEE547FFE229001FA
:0D121D0052EEF0EFA3F0A374A5F0A3F022B1
:100D9600020046E493A3F8E493A34003F68001F22D
:100DA60008DFF48029E493A3F85407240CC8C3335E
:100DB600C4540F4420C8834004F456800146F6DF2D
:100DC600E4800B0102040810204080900F01E47EAD
:100DD600019360BCA3FF543F30E509541FFEE49322
:100DE600A360010ECF54C025E060A840B8E493A3E9
:100DF600FAE493A3F8E493A3C8C582C8CAC583CA14
:100E0600F0A3C8C582C8CAC583CADFE9DEE780BECB
:010F6C000084
:0C0BC100E0FCA3E0FDA3E0FEA3E0FF22A7
:00000001FF
